{
	"RideShare.sol": {
		"RideShare": {
			"abi": [
				{
					"anonymous": false,
					"inputs": [
						{
							"indexed": true,
							"internalType": "uint256",
							"name": "rideId",
							"type": "uint256"
						},
						{
							"indexed": true,
							"internalType": "address",
							"name": "operator",
							"type": "address"
						},
						{
							"indexed": false,
							"internalType": "uint256",
							"name": "amount",
							"type": "uint256"
						}
					],
					"name": "OperatorWithdrawn",
					"type": "event"
				},
				{
					"anonymous": false,
					"inputs": [
						{
							"indexed": true,
							"internalType": "uint256",
							"name": "rideId",
							"type": "uint256"
						},
						{
							"indexed": true,
							"internalType": "address",
							"name": "operator",
							"type": "address"
						}
					],
					"name": "RideAccepted",
					"type": "event"
				},
				{
					"anonymous": false,
					"inputs": [
						{
							"indexed": true,
							"internalType": "uint256",
							"name": "rideId",
							"type": "uint256"
						}
					],
					"name": "RideCancelled",
					"type": "event"
				},
				{
					"anonymous": false,
					"inputs": [
						{
							"indexed": true,
							"internalType": "uint256",
							"name": "rideId",
							"type": "uint256"
						}
					],
					"name": "RideCompleted",
					"type": "event"
				},
				{
					"anonymous": false,
					"inputs": [
						{
							"indexed": true,
							"internalType": "uint256",
							"name": "rideId",
							"type": "uint256"
						},
						{
							"indexed": true,
							"internalType": "address",
							"name": "passenger",
							"type": "address"
						},
						{
							"indexed": false,
							"internalType": "uint256",
							"name": "fareWei",
							"type": "uint256"
						}
					],
					"name": "RideRequested",
					"type": "event"
				},
				{
					"inputs": [],
					"name": "nextRideId",
					"outputs": [
						{
							"internalType": "uint256",
							"name": "",
							"type": "uint256"
						}
					],
					"stateMutability": "view",
					"type": "function"
				},
				{
					"inputs": [
						{
							"internalType": "address payable",
							"name": "_operator",
							"type": "address"
						}
					],
					"name": "requestRide",
					"outputs": [
						{
							"internalType": "uint256",
							"name": "",
							"type": "uint256"
						}
					],
					"stateMutability": "payable",
					"type": "function"
				},
				{
					"inputs": [
						{
							"internalType": "uint256",
							"name": "",
							"type": "uint256"
						}
					],
					"name": "rides",
					"outputs": [
						{
							"internalType": "uint256",
							"name": "id",
							"type": "uint256"
						},
						{
							"internalType": "address payable",
							"name": "passenger",
							"type": "address"
						},
						{
							"internalType": "address payable",
							"name": "operator",
							"type": "address"
						},
						{
							"internalType": "uint256",
							"name": "fareWei",
							"type": "uint256"
						},
						{
							"internalType": "enum RideShare.Status",
							"name": "status",
							"type": "uint8"
						},
						{
							"internalType": "bool",
							"name": "operatorWithdrawn",
							"type": "bool"
						}
					],
					"stateMutability": "view",
					"type": "function"
				}
			],
			"devdoc": {
				"kind": "dev",
				"methods": {
					"requestRide(address)": {
						"params": {
							"_operator": "operator address that will accept the ride"
						}
					}
				},
				"title": "Simple Ride Escrow Contract for Bus Rides",
				"version": 1
			},
			"evm": {
				"assembly": "    /* \"RideShare.sol\":212:1939  contract RideShare {... */\n  mstore(0x40, 0x80)\n  callvalue\n  dup1\n  iszero\n  tag_1\n  jumpi\n  revert(0x00, 0x00)\ntag_1:\n  pop\n  dataSize(sub_0)\n  dup1\n  dataOffset(sub_0)\n  0x00\n  codecopy\n  0x00\n  return\nstop\n\nsub_0: assembly {\n        /* \"RideShare.sol\":212:1939  contract RideShare {... */\n      mstore(0x40, 0x80)\n      jumpi(tag_1, lt(calldatasize, 0x04))\n      shr(0xe0, calldataload(0x00))\n      dup1\n      0x5205f112\n      eq\n      tag_2\n      jumpi\n      dup1\n      0x754ed83a\n      eq\n      tag_3\n      jumpi\n      dup1\n      0xc467b287\n      eq\n      tag_4\n      jumpi\n    tag_1:\n      revert(0x00, 0x00)\n        /* \"RideShare.sol\":548:585  mapping(uint256 => Ride) public rides */\n    tag_2:\n      callvalue\n      dup1\n      iszero\n      tag_5\n      jumpi\n      revert(0x00, 0x00)\n    tag_5:\n      pop\n      tag_6\n      0x04\n      dup1\n      calldatasize\n      sub\n      dup2\n      add\n      swap1\n      tag_7\n      swap2\n      swap1\n      tag_8\n      jump\t// in\n    tag_7:\n      tag_9\n      jump\t// in\n    tag_6:\n      mload(0x40)\n      tag_10\n      swap7\n      swap6\n      swap5\n      swap4\n      swap3\n      swap2\n      swap1\n      tag_11\n      jump\t// in\n    tag_10:\n      mload(0x40)\n      dup1\n      swap2\n      sub\n      swap1\n      return\n        /* \"RideShare.sol\":516:541  uint256 public nextRideId */\n    tag_3:\n      callvalue\n      dup1\n      iszero\n      tag_12\n      jumpi\n      revert(0x00, 0x00)\n    tag_12:\n      pop\n      tag_13\n      tag_14\n      jump\t// in\n    tag_13:\n      mload(0x40)\n      tag_15\n      swap2\n      swap1\n      tag_16\n      jump\t// in\n    tag_15:\n      mload(0x40)\n      dup1\n      swap2\n      sub\n      swap1\n      return\n        /* \"RideShare.sol\":1409:1936  function requestRide(address payable _operator) external payable returns (uint256) {... */\n    tag_4:\n      tag_17\n      0x04\n      dup1\n      calldatasize\n      sub\n      dup2\n      add\n      swap1\n      tag_18\n      swap2\n      swap1\n      tag_19\n      jump\t// in\n    tag_18:\n      tag_20\n      jump\t// in\n    tag_17:\n      mload(0x40)\n      tag_21\n      swap2\n      swap1\n      tag_16\n      jump\t// in\n    tag_21:\n      mload(0x40)\n      dup1\n      swap2\n      sub\n      swap1\n      return\n        /* \"RideShare.sol\":548:585  mapping(uint256 => Ride) public rides */\n    tag_9:\n      mstore(0x20, 0x01)\n      dup1\n      0x00\n      mstore\n      keccak256(0x00, 0x40)\n      0x00\n      swap2\n      pop\n      swap1\n      pop\n      dup1\n      0x00\n      add\n      sload\n      swap1\n      dup1\n      0x01\n      add\n      0x00\n      swap1\n      sload\n      swap1\n      0x0100\n      exp\n      swap1\n      div\n      0xffffffffffffffffffffffffffffffffffffffff\n      and\n      swap1\n      dup1\n      0x02\n      add\n      0x00\n      swap1\n      sload\n      swap1\n      0x0100\n      exp\n      swap1\n      div\n      0xffffffffffffffffffffffffffffffffffffffff\n      and\n      swap1\n      dup1\n      0x03\n      add\n      sload\n      swap1\n      dup1\n      0x04\n      add\n      0x00\n      swap1\n      sload\n      swap1\n      0x0100\n      exp\n      swap1\n      div\n      0xff\n      and\n      swap1\n      dup1\n      0x04\n      add\n      0x01\n      swap1\n      sload\n      swap1\n      0x0100\n      exp\n      swap1\n      div\n      0xff\n      and\n      swap1\n      pop\n      dup7\n      jump\t// out\n        /* \"RideShare.sol\":516:541  uint256 public nextRideId */\n    tag_14:\n      sload(0x00)\n      dup2\n      jump\t// out\n        /* \"RideShare.sol\":1409:1936  function requestRide(address payable _operator) external payable returns (uint256) {... */\n    tag_20:\n        /* \"RideShare.sol\":1483:1490  uint256 */\n      0x00\n        /* \"RideShare.sol\":1523:1524  0 */\n      0x00\n        /* \"RideShare.sol\":1511:1520  msg.value */\n      callvalue\n        /* \"RideShare.sol\":1511:1524  msg.value > 0 */\n      gt\n        /* \"RideShare.sol\":1503:1545  require(msg.value > 0, \"Fare must be > 0\") */\n      tag_23\n      jumpi\n      mload(0x40)\n      0x08c379a000000000000000000000000000000000000000000000000000000000\n      dup2\n      mstore\n      0x04\n      add\n      tag_24\n      swap1\n      tag_25\n      jump\t// in\n    tag_24:\n      mload(0x40)\n      dup1\n      swap2\n      sub\n      swap1\n      revert\n    tag_23:\n        /* \"RideShare.sol\":1556:1570  uint256 rideId */\n      0x00\n        /* \"RideShare.sol\":1573:1583  nextRideId */\n      0x00\n      0x00\n        /* \"RideShare.sol\":1573:1585  nextRideId++ */\n      dup2\n      sload\n      dup1\n      swap3\n      swap2\n      swap1\n      tag_26\n      swap1\n      tag_27\n      jump\t// in\n    tag_26:\n      swap2\n      swap1\n      pop\n      sstore\n        /* \"RideShare.sol\":1556:1585  uint256 rideId = nextRideId++ */\n      swap1\n      pop\n        /* \"RideShare.sol\":1612:1844  Ride({... */\n      mload(0x40)\n      dup1\n      0xc0\n      add\n      0x40\n      mstore\n      dup1\n        /* \"RideShare.sol\":1636:1642  rideId */\n      dup3\n        /* \"RideShare.sol\":1612:1844  Ride({... */\n      dup2\n      mstore\n      0x20\n      add\n        /* \"RideShare.sol\":1676:1686  msg.sender */\n      caller\n        /* \"RideShare.sol\":1612:1844  Ride({... */\n      0xffffffffffffffffffffffffffffffffffffffff\n      and\n      dup2\n      mstore\n      0x20\n      add\n        /* \"RideShare.sol\":1712:1721  _operator */\n      dup5\n        /* \"RideShare.sol\":1612:1844  Ride({... */\n      0xffffffffffffffffffffffffffffffffffffffff\n      and\n      dup2\n      mstore\n      0x20\n      add\n        /* \"RideShare.sol\":1745:1754  msg.value */\n      callvalue\n        /* \"RideShare.sol\":1612:1844  Ride({... */\n      dup2\n      mstore\n      0x20\n      add\n        /* \"RideShare.sol\":1777:1793  Status.Requested */\n      0x00\n        /* \"RideShare.sol\":1612:1844  Ride({... */\n      0x03\n      dup2\n      gt\n      iszero\n      tag_28\n      jumpi\n      tag_29\n      tag_30\n      jump\t// in\n    tag_29:\n    tag_28:\n      dup2\n      mstore\n      0x20\n      add\n        /* \"RideShare.sol\":1827:1832  false */\n      0x00\n        /* \"RideShare.sol\":1612:1844  Ride({... */\n      iszero\n      iszero\n      dup2\n      mstore\n      pop\n        /* \"RideShare.sol\":1596:1601  rides */\n      0x01\n        /* \"RideShare.sol\":1596:1609  rides[rideId] */\n      0x00\n        /* \"RideShare.sol\":1602:1608  rideId */\n      dup4\n        /* \"RideShare.sol\":1596:1609  rides[rideId] */\n      dup2\n      mstore\n      0x20\n      add\n      swap1\n      dup2\n      mstore\n      0x20\n      add\n      0x00\n      keccak256\n        /* \"RideShare.sol\":1596:1844  rides[rideId] = Ride({... */\n      0x00\n      dup3\n      add\n      mload\n      dup2\n      0x00\n      add\n      sstore\n      0x20\n      dup3\n      add\n      mload\n      dup2\n      0x01\n      add\n      exp(0x0100, 0x00)\n      dup2\n      sload\n      dup2\n      0xffffffffffffffffffffffffffffffffffffffff\n      mul\n      not\n      and\n      swap1\n      dup4\n      0xffffffffffffffffffffffffffffffffffffffff\n      and\n      mul\n      or\n      swap1\n      sstore\n      pop\n      0x40\n      dup3\n      add\n      mload\n      dup2\n      0x02\n      add\n      exp(0x0100, 0x00)\n      dup2\n      sload\n      dup2\n      0xffffffffffffffffffffffffffffffffffffffff\n      mul\n      not\n      and\n      swap1\n      dup4\n      0xffffffffffffffffffffffffffffffffffffffff\n      and\n      mul\n      or\n      swap1\n      sstore\n      pop\n      0x60\n      dup3\n      add\n      mload\n      dup2\n      0x03\n      add\n      sstore\n      0x80\n      dup3\n      add\n      mload\n      dup2\n      0x04\n      add\n      exp(0x0100, 0x00)\n      dup2\n      sload\n      dup2\n      0xff\n      mul\n      not\n      and\n      swap1\n      dup4\n      0x03\n      dup2\n      gt\n      iszero\n      tag_31\n      jumpi\n      tag_32\n      tag_30\n      jump\t// in\n    tag_32:\n    tag_31:\n      mul\n      or\n      swap1\n      sstore\n      pop\n      0xa0\n      dup3\n      add\n      mload\n      dup2\n      0x04\n      add\n      exp(0x0100, 0x01)\n      dup2\n      sload\n      dup2\n      0xff\n      mul\n      not\n      and\n      swap1\n      dup4\n      iszero\n      iszero\n      mul\n      or\n      swap1\n      sstore\n      pop\n      swap1\n      pop\n      pop\n        /* \"RideShare.sol\":1882:1892  msg.sender */\n      caller\n        /* \"RideShare.sol\":1860:1904  RideRequested(rideId, msg.sender, msg.value) */\n      0xffffffffffffffffffffffffffffffffffffffff\n      and\n        /* \"RideShare.sol\":1874:1880  rideId */\n      dup2\n        /* \"RideShare.sol\":1860:1904  RideRequested(rideId, msg.sender, msg.value) */\n      0x54ae564e5bca6e1fe8b8da57b977869728091509f6fda4b7ca70f5f103196de4\n        /* \"RideShare.sol\":1894:1903  msg.value */\n      callvalue\n        /* \"RideShare.sol\":1860:1904  RideRequested(rideId, msg.sender, msg.value) */\n      mload(0x40)\n      tag_33\n      swap2\n      swap1\n      tag_16\n      jump\t// in\n    tag_33:\n      mload(0x40)\n      dup1\n      swap2\n      sub\n      swap1\n      log3\n        /* \"RideShare.sol\":1922:1928  rideId */\n      dup1\n        /* \"RideShare.sol\":1915:1928  return rideId */\n      swap2\n      pop\n      pop\n        /* \"RideShare.sol\":1409:1936  function requestRide(address payable _operator) external payable returns (uint256) {... */\n      swap2\n      swap1\n      pop\n      jump\t// out\n        /* \"#utility.yul\":88:205   */\n    tag_35:\n        /* \"#utility.yul\":197:198   */\n      0x00\n        /* \"#utility.yul\":194:195   */\n      0x00\n        /* \"#utility.yul\":187:199   */\n      revert\n        /* \"#utility.yul\":334:411   */\n    tag_37:\n        /* \"#utility.yul\":371:378   */\n      0x00\n        /* \"#utility.yul\":400:405   */\n      dup2\n        /* \"#utility.yul\":389:405   */\n      swap1\n      pop\n        /* \"#utility.yul\":334:411   */\n      swap2\n      swap1\n      pop\n      jump\t// out\n        /* \"#utility.yul\":417:539   */\n    tag_38:\n        /* \"#utility.yul\":490:514   */\n      tag_62\n        /* \"#utility.yul\":508:513   */\n      dup2\n        /* \"#utility.yul\":490:514   */\n      tag_37\n      jump\t// in\n    tag_62:\n        /* \"#utility.yul\":483:488   */\n      dup2\n        /* \"#utility.yul\":480:515   */\n      eq\n        /* \"#utility.yul\":470:533   */\n      tag_63\n      jumpi\n        /* \"#utility.yul\":529:530   */\n      0x00\n        /* \"#utility.yul\":526:527   */\n      0x00\n        /* \"#utility.yul\":519:531   */\n      revert\n        /* \"#utility.yul\":470:533   */\n    tag_63:\n        /* \"#utility.yul\":417:539   */\n      pop\n      jump\t// out\n        /* \"#utility.yul\":545:684   */\n    tag_39:\n        /* \"#utility.yul\":591:596   */\n      0x00\n        /* \"#utility.yul\":629:635   */\n      dup2\n        /* \"#utility.yul\":616:636   */\n      calldataload\n        /* \"#utility.yul\":607:636   */\n      swap1\n      pop\n        /* \"#utility.yul\":645:678   */\n      tag_65\n        /* \"#utility.yul\":672:677   */\n      dup2\n        /* \"#utility.yul\":645:678   */\n      tag_38\n      jump\t// in\n    tag_65:\n        /* \"#utility.yul\":545:684   */\n      swap3\n      swap2\n      pop\n      pop\n      jump\t// out\n        /* \"#utility.yul\":690:1019   */\n    tag_8:\n        /* \"#utility.yul\":749:755   */\n      0x00\n        /* \"#utility.yul\":798:800   */\n      0x20\n        /* \"#utility.yul\":786:795   */\n      dup3\n        /* \"#utility.yul\":777:784   */\n      dup5\n        /* \"#utility.yul\":773:796   */\n      sub\n        /* \"#utility.yul\":769:801   */\n      slt\n        /* \"#utility.yul\":766:885   */\n      iszero\n      tag_67\n      jumpi\n        /* \"#utility.yul\":804:883   */\n      tag_68\n      tag_35\n      jump\t// in\n    tag_68:\n        /* \"#utility.yul\":766:885   */\n    tag_67:\n        /* \"#utility.yul\":924:925   */\n      0x00\n        /* \"#utility.yul\":949:1002   */\n      tag_69\n        /* \"#utility.yul\":994:1001   */\n      dup5\n        /* \"#utility.yul\":985:991   */\n      dup3\n        /* \"#utility.yul\":974:983   */\n      dup6\n        /* \"#utility.yul\":970:992   */\n      add\n        /* \"#utility.yul\":949:1002   */\n      tag_39\n      jump\t// in\n    tag_69:\n        /* \"#utility.yul\":939:1002   */\n      swap2\n      pop\n        /* \"#utility.yul\":895:1012   */\n      pop\n        /* \"#utility.yul\":690:1019   */\n      swap3\n      swap2\n      pop\n      pop\n      jump\t// out\n        /* \"#utility.yul\":1025:1143   */\n    tag_40:\n        /* \"#utility.yul\":1112:1136   */\n      tag_71\n        /* \"#utility.yul\":1130:1135   */\n      dup2\n        /* \"#utility.yul\":1112:1136   */\n      tag_37\n      jump\t// in\n    tag_71:\n        /* \"#utility.yul\":1107:1110   */\n      dup3\n        /* \"#utility.yul\":1100:1137   */\n      mstore\n        /* \"#utility.yul\":1025:1143   */\n      pop\n      pop\n      jump\t// out\n        /* \"#utility.yul\":1149:1275   */\n    tag_41:\n        /* \"#utility.yul\":1186:1193   */\n      0x00\n        /* \"#utility.yul\":1226:1268   */\n      0xffffffffffffffffffffffffffffffffffffffff\n        /* \"#utility.yul\":1219:1224   */\n      dup3\n        /* \"#utility.yul\":1215:1269   */\n      and\n        /* \"#utility.yul\":1204:1269   */\n      swap1\n      pop\n        /* \"#utility.yul\":1149:1275   */\n      swap2\n      swap1\n      pop\n      jump\t// out\n        /* \"#utility.yul\":1281:1385   */\n    tag_42:\n        /* \"#utility.yul\":1326:1333   */\n      0x00\n        /* \"#utility.yul\":1355:1379   */\n      tag_74\n        /* \"#utility.yul\":1373:1378   */\n      dup3\n        /* \"#utility.yul\":1355:1379   */\n      tag_41\n      jump\t// in\n    tag_74:\n        /* \"#utility.yul\":1344:1379   */\n      swap1\n      pop\n        /* \"#utility.yul\":1281:1385   */\n      swap2\n      swap1\n      pop\n      jump\t// out\n        /* \"#utility.yul\":1391:1533   */\n    tag_43:\n        /* \"#utility.yul\":1494:1526   */\n      tag_76\n        /* \"#utility.yul\":1520:1525   */\n      dup2\n        /* \"#utility.yul\":1494:1526   */\n      tag_42\n      jump\t// in\n    tag_76:\n        /* \"#utility.yul\":1489:1492   */\n      dup3\n        /* \"#utility.yul\":1482:1527   */\n      mstore\n        /* \"#utility.yul\":1391:1533   */\n      pop\n      pop\n      jump\t// out\n        /* \"#utility.yul\":1539:1719   */\n    tag_30:\n        /* \"#utility.yul\":1587:1664   */\n      0x4e487b7100000000000000000000000000000000000000000000000000000000\n        /* \"#utility.yul\":1584:1585   */\n      0x00\n        /* \"#utility.yul\":1577:1665   */\n      mstore\n        /* \"#utility.yul\":1684:1688   */\n      0x21\n        /* \"#utility.yul\":1681:1682   */\n      0x04\n        /* \"#utility.yul\":1674:1689   */\n      mstore\n        /* \"#utility.yul\":1708:1712   */\n      0x24\n        /* \"#utility.yul\":1705:1706   */\n      0x00\n        /* \"#utility.yul\":1698:1713   */\n      revert\n        /* \"#utility.yul\":1725:1838   */\n    tag_44:\n        /* \"#utility.yul\":1806:1807   */\n      0x04\n        /* \"#utility.yul\":1799:1804   */\n      dup2\n        /* \"#utility.yul\":1796:1808   */\n      lt\n        /* \"#utility.yul\":1786:1832   */\n      tag_79\n      jumpi\n        /* \"#utility.yul\":1812:1830   */\n      tag_80\n      tag_30\n      jump\t// in\n    tag_80:\n        /* \"#utility.yul\":1786:1832   */\n    tag_79:\n        /* \"#utility.yul\":1725:1838   */\n      pop\n      jump\t// out\n        /* \"#utility.yul\":1844:1971   */\n    tag_45:\n        /* \"#utility.yul\":1889:1896   */\n      0x00\n        /* \"#utility.yul\":1918:1923   */\n      dup2\n        /* \"#utility.yul\":1907:1923   */\n      swap1\n      pop\n        /* \"#utility.yul\":1924:1965   */\n      tag_82\n        /* \"#utility.yul\":1959:1964   */\n      dup3\n        /* \"#utility.yul\":1924:1965   */\n      tag_44\n      jump\t// in\n    tag_82:\n        /* \"#utility.yul\":1844:1971   */\n      swap2\n      swap1\n      pop\n      jump\t// out\n        /* \"#utility.yul\":1977:2104   */\n    tag_46:\n        /* \"#utility.yul\":2033:2042   */\n      0x00\n        /* \"#utility.yul\":2066:2098   */\n      tag_84\n        /* \"#utility.yul\":2092:2097   */\n      dup3\n        /* \"#utility.yul\":2066:2098   */\n      tag_45\n      jump\t// in\n    tag_84:\n        /* \"#utility.yul\":2053:2098   */\n      swap1\n      pop\n        /* \"#utility.yul\":1977:2104   */\n      swap2\n      swap1\n      pop\n      jump\t// out\n        /* \"#utility.yul\":2110:2253   */\n    tag_47:\n        /* \"#utility.yul\":2203:2246   */\n      tag_86\n        /* \"#utility.yul\":2240:2245   */\n      dup2\n        /* \"#utility.yul\":2203:2246   */\n      tag_46\n      jump\t// in\n    tag_86:\n        /* \"#utility.yul\":2198:2201   */\n      dup3\n        /* \"#utility.yul\":2191:2247   */\n      mstore\n        /* \"#utility.yul\":2110:2253   */\n      pop\n      pop\n      jump\t// out\n        /* \"#utility.yul\":2259:2349   */\n    tag_48:\n        /* \"#utility.yul\":2293:2300   */\n      0x00\n        /* \"#utility.yul\":2336:2341   */\n      dup2\n        /* \"#utility.yul\":2329:2342   */\n      iszero\n        /* \"#utility.yul\":2322:2343   */\n      iszero\n        /* \"#utility.yul\":2311:2343   */\n      swap1\n      pop\n        /* \"#utility.yul\":2259:2349   */\n      swap2\n      swap1\n      pop\n      jump\t// out\n        /* \"#utility.yul\":2355:2464   */\n    tag_49:\n        /* \"#utility.yul\":2436:2457   */\n      tag_89\n        /* \"#utility.yul\":2451:2456   */\n      dup2\n        /* \"#utility.yul\":2436:2457   */\n      tag_48\n      jump\t// in\n    tag_89:\n        /* \"#utility.yul\":2431:2434   */\n      dup3\n        /* \"#utility.yul\":2424:2458   */\n      mstore\n        /* \"#utility.yul\":2355:2464   */\n      pop\n      pop\n      jump\t// out\n        /* \"#utility.yul\":2470:3309   */\n    tag_11:\n        /* \"#utility.yul\":2735:2739   */\n      0x00\n        /* \"#utility.yul\":2773:2776   */\n      0xc0\n        /* \"#utility.yul\":2762:2771   */\n      dup3\n        /* \"#utility.yul\":2758:2777   */\n      add\n        /* \"#utility.yul\":2750:2777   */\n      swap1\n      pop\n        /* \"#utility.yul\":2787:2858   */\n      tag_91\n        /* \"#utility.yul\":2855:2856   */\n      0x00\n        /* \"#utility.yul\":2844:2853   */\n      dup4\n        /* \"#utility.yul\":2840:2857   */\n      add\n        /* \"#utility.yul\":2831:2837   */\n      dup10\n        /* \"#utility.yul\":2787:2858   */\n      tag_40\n      jump\t// in\n    tag_91:\n        /* \"#utility.yul\":2868:2956   */\n      tag_92\n        /* \"#utility.yul\":2952:2954   */\n      0x20\n        /* \"#utility.yul\":2941:2950   */\n      dup4\n        /* \"#utility.yul\":2937:2955   */\n      add\n        /* \"#utility.yul\":2928:2934   */\n      dup9\n        /* \"#utility.yul\":2868:2956   */\n      tag_43\n      jump\t// in\n    tag_92:\n        /* \"#utility.yul\":2966:3054   */\n      tag_93\n        /* \"#utility.yul\":3050:3052   */\n      0x40\n        /* \"#utility.yul\":3039:3048   */\n      dup4\n        /* \"#utility.yul\":3035:3053   */\n      add\n        /* \"#utility.yul\":3026:3032   */\n      dup8\n        /* \"#utility.yul\":2966:3054   */\n      tag_43\n      jump\t// in\n    tag_93:\n        /* \"#utility.yul\":3064:3136   */\n      tag_94\n        /* \"#utility.yul\":3132:3134   */\n      0x60\n        /* \"#utility.yul\":3121:3130   */\n      dup4\n        /* \"#utility.yul\":3117:3135   */\n      add\n        /* \"#utility.yul\":3108:3114   */\n      dup7\n        /* \"#utility.yul\":3064:3136   */\n      tag_40\n      jump\t// in\n    tag_94:\n        /* \"#utility.yul\":3146:3225   */\n      tag_95\n        /* \"#utility.yul\":3220:3223   */\n      0x80\n        /* \"#utility.yul\":3209:3218   */\n      dup4\n        /* \"#utility.yul\":3205:3224   */\n      add\n        /* \"#utility.yul\":3196:3202   */\n      dup6\n        /* \"#utility.yul\":3146:3225   */\n      tag_47\n      jump\t// in\n    tag_95:\n        /* \"#utility.yul\":3235:3302   */\n      tag_96\n        /* \"#utility.yul\":3297:3300   */\n      0xa0\n        /* \"#utility.yul\":3286:3295   */\n      dup4\n        /* \"#utility.yul\":3282:3301   */\n      add\n        /* \"#utility.yul\":3273:3279   */\n      dup5\n        /* \"#utility.yul\":3235:3302   */\n      tag_49\n      jump\t// in\n    tag_96:\n        /* \"#utility.yul\":2470:3309   */\n      swap8\n      swap7\n      pop\n      pop\n      pop\n      pop\n      pop\n      pop\n      pop\n      jump\t// out\n        /* \"#utility.yul\":3315:3537   */\n    tag_16:\n        /* \"#utility.yul\":3408:3412   */\n      0x00\n        /* \"#utility.yul\":3446:3448   */\n      0x20\n        /* \"#utility.yul\":3435:3444   */\n      dup3\n        /* \"#utility.yul\":3431:3449   */\n      add\n        /* \"#utility.yul\":3423:3449   */\n      swap1\n      pop\n        /* \"#utility.yul\":3459:3530   */\n      tag_98\n        /* \"#utility.yul\":3527:3528   */\n      0x00\n        /* \"#utility.yul\":3516:3525   */\n      dup4\n        /* \"#utility.yul\":3512:3529   */\n      add\n        /* \"#utility.yul\":3503:3509   */\n      dup5\n        /* \"#utility.yul\":3459:3530   */\n      tag_40\n      jump\t// in\n    tag_98:\n        /* \"#utility.yul\":3315:3537   */\n      swap3\n      swap2\n      pop\n      pop\n      jump\t// out\n        /* \"#utility.yul\":3543:3681   */\n    tag_50:\n        /* \"#utility.yul\":3624:3656   */\n      tag_100\n        /* \"#utility.yul\":3650:3655   */\n      dup2\n        /* \"#utility.yul\":3624:3656   */\n      tag_42\n      jump\t// in\n    tag_100:\n        /* \"#utility.yul\":3617:3622   */\n      dup2\n        /* \"#utility.yul\":3614:3657   */\n      eq\n        /* \"#utility.yul\":3604:3675   */\n      tag_101\n      jumpi\n        /* \"#utility.yul\":3671:3672   */\n      0x00\n        /* \"#utility.yul\":3668:3669   */\n      0x00\n        /* \"#utility.yul\":3661:3673   */\n      revert\n        /* \"#utility.yul\":3604:3675   */\n    tag_101:\n        /* \"#utility.yul\":3543:3681   */\n      pop\n      jump\t// out\n        /* \"#utility.yul\":3687:3842   */\n    tag_51:\n        /* \"#utility.yul\":3741:3746   */\n      0x00\n        /* \"#utility.yul\":3779:3785   */\n      dup2\n        /* \"#utility.yul\":3766:3786   */\n      calldataload\n        /* \"#utility.yul\":3757:3786   */\n      swap1\n      pop\n        /* \"#utility.yul\":3795:3836   */\n      tag_103\n        /* \"#utility.yul\":3830:3835   */\n      dup2\n        /* \"#utility.yul\":3795:3836   */\n      tag_50\n      jump\t// in\n    tag_103:\n        /* \"#utility.yul\":3687:3842   */\n      swap3\n      swap2\n      pop\n      pop\n      jump\t// out\n        /* \"#utility.yul\":3848:4193   */\n    tag_19:\n        /* \"#utility.yul\":3915:3921   */\n      0x00\n        /* \"#utility.yul\":3964:3966   */\n      0x20\n        /* \"#utility.yul\":3952:3961   */\n      dup3\n        /* \"#utility.yul\":3943:3950   */\n      dup5\n        /* \"#utility.yul\":3939:3962   */\n      sub\n        /* \"#utility.yul\":3935:3967   */\n      slt\n        /* \"#utility.yul\":3932:4051   */\n      iszero\n      tag_105\n      jumpi\n        /* \"#utility.yul\":3970:4049   */\n      tag_106\n      tag_35\n      jump\t// in\n    tag_106:\n        /* \"#utility.yul\":3932:4051   */\n    tag_105:\n        /* \"#utility.yul\":4090:4091   */\n      0x00\n        /* \"#utility.yul\":4115:4176   */\n      tag_107\n        /* \"#utility.yul\":4168:4175   */\n      dup5\n        /* \"#utility.yul\":4159:4165   */\n      dup3\n        /* \"#utility.yul\":4148:4157   */\n      dup6\n        /* \"#utility.yul\":4144:4166   */\n      add\n        /* \"#utility.yul\":4115:4176   */\n      tag_51\n      jump\t// in\n    tag_107:\n        /* \"#utility.yul\":4105:4176   */\n      swap2\n      pop\n        /* \"#utility.yul\":4061:4186   */\n      pop\n        /* \"#utility.yul\":3848:4193   */\n      swap3\n      swap2\n      pop\n      pop\n      jump\t// out\n        /* \"#utility.yul\":4199:4368   */\n    tag_52:\n        /* \"#utility.yul\":4283:4294   */\n      0x00\n        /* \"#utility.yul\":4317:4323   */\n      dup3\n        /* \"#utility.yul\":4312:4315   */\n      dup3\n        /* \"#utility.yul\":4305:4324   */\n      mstore\n        /* \"#utility.yul\":4357:4361   */\n      0x20\n        /* \"#utility.yul\":4352:4355   */\n      dup3\n        /* \"#utility.yul\":4348:4362   */\n      add\n        /* \"#utility.yul\":4333:4362   */\n      swap1\n      pop\n        /* \"#utility.yul\":4199:4368   */\n      swap3\n      swap2\n      pop\n      pop\n      jump\t// out\n        /* \"#utility.yul\":4374:4540   */\n    tag_53:\n        /* \"#utility.yul\":4514:4532   */\n      0x46617265206d757374206265203e203000000000000000000000000000000000\n        /* \"#utility.yul\":4510:4511   */\n      0x00\n        /* \"#utility.yul\":4502:4508   */\n      dup3\n        /* \"#utility.yul\":4498:4512   */\n      add\n        /* \"#utility.yul\":4491:4533   */\n      mstore\n        /* \"#utility.yul\":4374:4540   */\n      pop\n      jump\t// out\n        /* \"#utility.yul\":4546:4912   */\n    tag_54:\n        /* \"#utility.yul\":4688:4691   */\n      0x00\n        /* \"#utility.yul\":4709:4776   */\n      tag_111\n        /* \"#utility.yul\":4773:4775   */\n      0x10\n        /* \"#utility.yul\":4768:4771   */\n      dup4\n        /* \"#utility.yul\":4709:4776   */\n      tag_52\n      jump\t// in\n    tag_111:\n        /* \"#utility.yul\":4702:4776   */\n      swap2\n      pop\n        /* \"#utility.yul\":4785:4878   */\n      tag_112\n        /* \"#utility.yul\":4874:4877   */\n      dup3\n        /* \"#utility.yul\":4785:4878   */\n      tag_53\n      jump\t// in\n    tag_112:\n        /* \"#utility.yul\":4903:4905   */\n      0x20\n        /* \"#utility.yul\":4898:4901   */\n      dup3\n        /* \"#utility.yul\":4894:4906   */\n      add\n        /* \"#utility.yul\":4887:4906   */\n      swap1\n      pop\n        /* \"#utility.yul\":4546:4912   */\n      swap2\n      swap1\n      pop\n      jump\t// out\n        /* \"#utility.yul\":4918:5337   */\n    tag_25:\n        /* \"#utility.yul\":5084:5088   */\n      0x00\n        /* \"#utility.yul\":5122:5124   */\n      0x20\n        /* \"#utility.yul\":5111:5120   */\n      dup3\n        /* \"#utility.yul\":5107:5125   */\n      add\n        /* \"#utility.yul\":5099:5125   */\n      swap1\n      pop\n        /* \"#utility.yul\":5171:5180   */\n      dup2\n        /* \"#utility.yul\":5165:5169   */\n      dup2\n        /* \"#utility.yul\":5161:5181   */\n      sub\n        /* \"#utility.yul\":5157:5158   */\n      0x00\n        /* \"#utility.yul\":5146:5155   */\n      dup4\n        /* \"#utility.yul\":5142:5159   */\n      add\n        /* \"#utility.yul\":5135:5182   */\n      mstore\n        /* \"#utility.yul\":5199:5330   */\n      tag_114\n        /* \"#utility.yul\":5325:5329   */\n      dup2\n        /* \"#utility.yul\":5199:5330   */\n      tag_54\n      jump\t// in\n    tag_114:\n        /* \"#utility.yul\":5191:5330   */\n      swap1\n      pop\n        /* \"#utility.yul\":4918:5337   */\n      swap2\n      swap1\n      pop\n      jump\t// out\n        /* \"#utility.yul\":5343:5523   */\n    tag_55:\n        /* \"#utility.yul\":5391:5468   */\n      0x4e487b7100000000000000000000000000000000000000000000000000000000\n        /* \"#utility.yul\":5388:5389   */\n      0x00\n        /* \"#utility.yul\":5381:5469   */\n      mstore\n        /* \"#utility.yul\":5488:5492   */\n      0x11\n        /* \"#utility.yul\":5485:5486   */\n      0x04\n        /* \"#utility.yul\":5478:5493   */\n      mstore\n        /* \"#utility.yul\":5512:5516   */\n      0x24\n        /* \"#utility.yul\":5509:5510   */\n      0x00\n        /* \"#utility.yul\":5502:5517   */\n      revert\n        /* \"#utility.yul\":5529:5762   */\n    tag_27:\n        /* \"#utility.yul\":5568:5571   */\n      0x00\n        /* \"#utility.yul\":5591:5615   */\n      tag_117\n        /* \"#utility.yul\":5609:5614   */\n      dup3\n        /* \"#utility.yul\":5591:5615   */\n      tag_37\n      jump\t// in\n    tag_117:\n        /* \"#utility.yul\":5582:5615   */\n      swap2\n      pop\n        /* \"#utility.yul\":5637:5703   */\n      0xffffffffffffffffffffffffffffffffffffffffffffffffffffffffffffffff\n        /* \"#utility.yul\":5630:5635   */\n      dup3\n        /* \"#utility.yul\":5627:5704   */\n      sub\n        /* \"#utility.yul\":5624:5727   */\n      tag_118\n      jumpi\n        /* \"#utility.yul\":5707:5725   */\n      tag_119\n      tag_55\n      jump\t// in\n    tag_119:\n        /* \"#utility.yul\":5624:5727   */\n    tag_118:\n        /* \"#utility.yul\":5754:5755   */\n      0x01\n        /* \"#utility.yul\":5747:5752   */\n      dup3\n        /* \"#utility.yul\":5743:5756   */\n      add\n        /* \"#utility.yul\":5736:5756   */\n      swap1\n      pop\n        /* \"#utility.yul\":5529:5762   */\n      swap2\n      swap1\n      pop\n      jump\t// out\n\n    auxdata: 0xa264697066735822122002b76f2874f3b04a8729ba423809dda0b802b6acfafb8ed5d54a0a5c2ccdadb564736f6c634300081e0033\n}\n",
				"bytecode": {
					"linkReferences": {},
					"object": "6080604052348015600e575f5ffd5b506106b38061001c5f395ff3fe608060405260043610610033575f3560e01c80635205f11214610037578063754ed83a14610078578063c467b287146100a2575b5f5ffd5b348015610042575f5ffd5b5061005d600480360381019061005891906103be565b6100d2565b60405161006f969594939291906104c4565b60405180910390f35b348015610083575f5ffd5b5061008c610161565b6040516100999190610523565b60405180910390f35b6100bc60048036038101906100b79190610566565b610166565b6040516100c99190610523565b60405180910390f35b6001602052805f5260405f205f91509050805f015490806001015f9054906101000a900473ffffffffffffffffffffffffffffffffffffffff1690806002015f9054906101000a900473ffffffffffffffffffffffffffffffffffffffff1690806003015490806004015f9054906101000a900460ff16908060040160019054906101000a900460ff16905086565b5f5481565b5f5f34116101a9576040517f08c379a00000000000000000000000000000000000000000000000000000000081526004016101a0906105eb565b60405180910390fd5b5f5f5f8154809291906101bb90610636565b9190505590506040518060c001604052808281526020013373ffffffffffffffffffffffffffffffffffffffff1681526020018473ffffffffffffffffffffffffffffffffffffffff1681526020013481526020015f600381111561022357610222610437565b5b81526020015f151581525060015f8381526020019081526020015f205f820151815f01556020820151816001015f6101000a81548173ffffffffffffffffffffffffffffffffffffffff021916908373ffffffffffffffffffffffffffffffffffffffff1602179055506040820151816002015f6101000a81548173ffffffffffffffffffffffffffffffffffffffff021916908373ffffffffffffffffffffffffffffffffffffffff160217905550606082015181600301556080820151816004015f6101000a81548160ff0219169083600381111561030757610306610437565b5b021790555060a08201518160040160016101000a81548160ff0219169083151502179055509050503373ffffffffffffffffffffffffffffffffffffffff16817f54ae564e5bca6e1fe8b8da57b977869728091509f6fda4b7ca70f5f103196de4346040516103769190610523565b60405180910390a380915050919050565b5f5ffd5b5f819050919050565b61039d8161038b565b81146103a7575f5ffd5b50565b5f813590506103b881610394565b92915050565b5f602082840312156103d3576103d2610387565b5b5f6103e0848285016103aa565b91505092915050565b6103f28161038b565b82525050565b5f73ffffffffffffffffffffffffffffffffffffffff82169050919050565b5f610421826103f8565b9050919050565b61043181610417565b82525050565b7f4e487b71000000000000000000000000000000000000000000000000000000005f52602160045260245ffd5b6004811061047557610474610437565b5b50565b5f81905061048582610464565b919050565b5f61049482610478565b9050919050565b6104a48161048a565b82525050565b5f8115159050919050565b6104be816104aa565b82525050565b5f60c0820190506104d75f8301896103e9565b6104e46020830188610428565b6104f16040830187610428565b6104fe60608301866103e9565b61050b608083018561049b565b61051860a08301846104b5565b979650505050505050565b5f6020820190506105365f8301846103e9565b92915050565b61054581610417565b811461054f575f5ffd5b50565b5f813590506105608161053c565b92915050565b5f6020828403121561057b5761057a610387565b5b5f61058884828501610552565b91505092915050565b5f82825260208201905092915050565b7f46617265206d757374206265203e2030000000000000000000000000000000005f82015250565b5f6105d5601083610591565b91506105e0826105a1565b602082019050919050565b5f6020820190508181035f830152610602816105c9565b9050919050565b7f4e487b71000000000000000000000000000000000000000000000000000000005f52601160045260245ffd5b5f6106408261038b565b91507fffffffffffffffffffffffffffffffffffffffffffffffffffffffffffffffff820361067257610671610609565b5b60018201905091905056fea264697066735822122002b76f2874f3b04a8729ba423809dda0b802b6acfafb8ed5d54a0a5c2ccdadb564736f6c634300081e0033",
					"opcodes": "PUSH1 0x80 PUSH1 0x40 MSTORE CALLVALUE DUP1 ISZERO PUSH1 0xE JUMPI PUSH0 PUSH0 REVERT JUMPDEST POP PUSH2 0x6B3 DUP1 PUSH2 0x1C PUSH0 CODECOPY PUSH0 RETURN INVALID PUSH1 0x80 PUSH1 0x40 MSTORE PUSH1 0x4 CALLDATASIZE LT PUSH2 0x33 JUMPI PUSH0 CALLDATALOAD PUSH1 0xE0 SHR DUP1 PUSH4 0x5205F112 EQ PUSH2 0x37 JUMPI DUP1 PUSH4 0x754ED83A EQ PUSH2 0x78 JUMPI DUP1 PUSH4 0xC467B287 EQ PUSH2 0xA2 JUMPI JUMPDEST PUSH0 PUSH0 REVERT JUMPDEST CALLVALUE DUP1 ISZERO PUSH2 0x42 JUMPI PUSH0 PUSH0 REVERT JUMPDEST POP PUSH2 0x5D PUSH1 0x4 DUP1 CALLDATASIZE SUB DUP2 ADD SWAP1 PUSH2 0x58 SWAP2 SWAP1 PUSH2 0x3BE JUMP JUMPDEST PUSH2 0xD2 JUMP JUMPDEST PUSH1 0x40 MLOAD PUSH2 0x6F SWAP7 SWAP6 SWAP5 SWAP4 SWAP3 SWAP2 SWAP1 PUSH2 0x4C4 JUMP JUMPDEST PUSH1 0x40 MLOAD DUP1 SWAP2 SUB SWAP1 RETURN JUMPDEST CALLVALUE DUP1 ISZERO PUSH2 0x83 JUMPI PUSH0 PUSH0 REVERT JUMPDEST POP PUSH2 0x8C PUSH2 0x161 JUMP JUMPDEST PUSH1 0x40 MLOAD PUSH2 0x99 SWAP2 SWAP1 PUSH2 0x523 JUMP JUMPDEST PUSH1 0x40 MLOAD DUP1 SWAP2 SUB SWAP1 RETURN JUMPDEST PUSH2 0xBC PUSH1 0x4 DUP1 CALLDATASIZE SUB DUP2 ADD SWAP1 PUSH2 0xB7 SWAP2 SWAP1 PUSH2 0x566 JUMP JUMPDEST PUSH2 0x166 JUMP JUMPDEST PUSH1 0x40 MLOAD PUSH2 0xC9 SWAP2 SWAP1 PUSH2 0x523 JUMP JUMPDEST PUSH1 0x40 MLOAD DUP1 SWAP2 SUB SWAP1 RETURN JUMPDEST PUSH1 0x1 PUSH1 0x20 MSTORE DUP1 PUSH0 MSTORE PUSH1 0x40 PUSH0 KECCAK256 PUSH0 SWAP2 POP SWAP1 POP DUP1 PUSH0 ADD SLOAD SWAP1 DUP1 PUSH1 0x1 ADD PUSH0 SWAP1 SLOAD SWAP1 PUSH2 0x100 EXP SWAP1 DIV PUSH20 0xFFFFFFFFFFFFFFFFFFFFFFFFFFFFFFFFFFFFFFFF AND SWAP1 DUP1 PUSH1 0x2 ADD PUSH0 SWAP1 SLOAD SWAP1 PUSH2 0x100 EXP SWAP1 DIV PUSH20 0xFFFFFFFFFFFFFFFFFFFFFFFFFFFFFFFFFFFFFFFF AND SWAP1 DUP1 PUSH1 0x3 ADD SLOAD SWAP1 DUP1 PUSH1 0x4 ADD PUSH0 SWAP1 SLOAD SWAP1 PUSH2 0x100 EXP SWAP1 DIV PUSH1 0xFF AND SWAP1 DUP1 PUSH1 0x4 ADD PUSH1 0x1 SWAP1 SLOAD SWAP1 PUSH2 0x100 EXP SWAP1 DIV PUSH1 0xFF AND SWAP1 POP DUP7 JUMP JUMPDEST PUSH0 SLOAD DUP2 JUMP JUMPDEST PUSH0 PUSH0 CALLVALUE GT PUSH2 0x1A9 JUMPI PUSH1 0x40 MLOAD PUSH32 0x8C379A000000000000000000000000000000000000000000000000000000000 DUP2 MSTORE PUSH1 0x4 ADD PUSH2 0x1A0 SWAP1 PUSH2 0x5EB JUMP JUMPDEST PUSH1 0x40 MLOAD DUP1 SWAP2 SUB SWAP1 REVERT JUMPDEST PUSH0 PUSH0 PUSH0 DUP2 SLOAD DUP1 SWAP3 SWAP2 SWAP1 PUSH2 0x1BB SWAP1 PUSH2 0x636 JUMP JUMPDEST SWAP2 SWAP1 POP SSTORE SWAP1 POP PUSH1 0x40 MLOAD DUP1 PUSH1 0xC0 ADD PUSH1 0x40 MSTORE DUP1 DUP3 DUP2 MSTORE PUSH1 0x20 ADD CALLER PUSH20 0xFFFFFFFFFFFFFFFFFFFFFFFFFFFFFFFFFFFFFFFF AND DUP2 MSTORE PUSH1 0x20 ADD DUP5 PUSH20 0xFFFFFFFFFFFFFFFFFFFFFFFFFFFFFFFFFFFFFFFF AND DUP2 MSTORE PUSH1 0x20 ADD CALLVALUE DUP2 MSTORE PUSH1 0x20 ADD PUSH0 PUSH1 0x3 DUP2 GT ISZERO PUSH2 0x223 JUMPI PUSH2 0x222 PUSH2 0x437 JUMP JUMPDEST JUMPDEST DUP2 MSTORE PUSH1 0x20 ADD PUSH0 ISZERO ISZERO DUP2 MSTORE POP PUSH1 0x1 PUSH0 DUP4 DUP2 MSTORE PUSH1 0x20 ADD SWAP1 DUP2 MSTORE PUSH1 0x20 ADD PUSH0 KECCAK256 PUSH0 DUP3 ADD MLOAD DUP2 PUSH0 ADD SSTORE PUSH1 0x20 DUP3 ADD MLOAD DUP2 PUSH1 0x1 ADD PUSH0 PUSH2 0x100 EXP DUP2 SLOAD DUP2 PUSH20 0xFFFFFFFFFFFFFFFFFFFFFFFFFFFFFFFFFFFFFFFF MUL NOT AND SWAP1 DUP4 PUSH20 0xFFFFFFFFFFFFFFFFFFFFFFFFFFFFFFFFFFFFFFFF AND MUL OR SWAP1 SSTORE POP PUSH1 0x40 DUP3 ADD MLOAD DUP2 PUSH1 0x2 ADD PUSH0 PUSH2 0x100 EXP DUP2 SLOAD DUP2 PUSH20 0xFFFFFFFFFFFFFFFFFFFFFFFFFFFFFFFFFFFFFFFF MUL NOT AND SWAP1 DUP4 PUSH20 0xFFFFFFFFFFFFFFFFFFFFFFFFFFFFFFFFFFFFFFFF AND MUL OR SWAP1 SSTORE POP PUSH1 0x60 DUP3 ADD MLOAD DUP2 PUSH1 0x3 ADD SSTORE PUSH1 0x80 DUP3 ADD MLOAD DUP2 PUSH1 0x4 ADD PUSH0 PUSH2 0x100 EXP DUP2 SLOAD DUP2 PUSH1 0xFF MUL NOT AND SWAP1 DUP4 PUSH1 0x3 DUP2 GT ISZERO PUSH2 0x307 JUMPI PUSH2 0x306 PUSH2 0x437 JUMP JUMPDEST JUMPDEST MUL OR SWAP1 SSTORE POP PUSH1 0xA0 DUP3 ADD MLOAD DUP2 PUSH1 0x4 ADD PUSH1 0x1 PUSH2 0x100 EXP DUP2 SLOAD DUP2 PUSH1 0xFF MUL NOT AND SWAP1 DUP4 ISZERO ISZERO MUL OR SWAP1 SSTORE POP SWAP1 POP POP CALLER PUSH20 0xFFFFFFFFFFFFFFFFFFFFFFFFFFFFFFFFFFFFFFFF AND DUP2 PUSH32 0x54AE564E5BCA6E1FE8B8DA57B977869728091509F6FDA4B7CA70F5F103196DE4 CALLVALUE PUSH1 0x40 MLOAD PUSH2 0x376 SWAP2 SWAP1 PUSH2 0x523 JUMP JUMPDEST PUSH1 0x40 MLOAD DUP1 SWAP2 SUB SWAP1 LOG3 DUP1 SWAP2 POP POP SWAP2 SWAP1 POP JUMP JUMPDEST PUSH0 PUSH0 REVERT JUMPDEST PUSH0 DUP2 SWAP1 POP SWAP2 SWAP1 POP JUMP JUMPDEST PUSH2 0x39D DUP2 PUSH2 0x38B JUMP JUMPDEST DUP2 EQ PUSH2 0x3A7 JUMPI PUSH0 PUSH0 REVERT JUMPDEST POP JUMP JUMPDEST PUSH0 DUP2 CALLDATALOAD SWAP1 POP PUSH2 0x3B8 DUP2 PUSH2 0x394 JUMP JUMPDEST SWAP3 SWAP2 POP POP JUMP JUMPDEST PUSH0 PUSH1 0x20 DUP3 DUP5 SUB SLT ISZERO PUSH2 0x3D3 JUMPI PUSH2 0x3D2 PUSH2 0x387 JUMP JUMPDEST JUMPDEST PUSH0 PUSH2 0x3E0 DUP5 DUP3 DUP6 ADD PUSH2 0x3AA JUMP JUMPDEST SWAP2 POP POP SWAP3 SWAP2 POP POP JUMP JUMPDEST PUSH2 0x3F2 DUP2 PUSH2 0x38B JUMP JUMPDEST DUP3 MSTORE POP POP JUMP JUMPDEST PUSH0 PUSH20 0xFFFFFFFFFFFFFFFFFFFFFFFFFFFFFFFFFFFFFFFF DUP3 AND SWAP1 POP SWAP2 SWAP1 POP JUMP JUMPDEST PUSH0 PUSH2 0x421 DUP3 PUSH2 0x3F8 JUMP JUMPDEST SWAP1 POP SWAP2 SWAP1 POP JUMP JUMPDEST PUSH2 0x431 DUP2 PUSH2 0x417 JUMP JUMPDEST DUP3 MSTORE POP POP JUMP JUMPDEST PUSH32 0x4E487B7100000000000000000000000000000000000000000000000000000000 PUSH0 MSTORE PUSH1 0x21 PUSH1 0x4 MSTORE PUSH1 0x24 PUSH0 REVERT JUMPDEST PUSH1 0x4 DUP2 LT PUSH2 0x475 JUMPI PUSH2 0x474 PUSH2 0x437 JUMP JUMPDEST JUMPDEST POP JUMP JUMPDEST PUSH0 DUP2 SWAP1 POP PUSH2 0x485 DUP3 PUSH2 0x464 JUMP JUMPDEST SWAP2 SWAP1 POP JUMP JUMPDEST PUSH0 PUSH2 0x494 DUP3 PUSH2 0x478 JUMP JUMPDEST SWAP1 POP SWAP2 SWAP1 POP JUMP JUMPDEST PUSH2 0x4A4 DUP2 PUSH2 0x48A JUMP JUMPDEST DUP3 MSTORE POP POP JUMP JUMPDEST PUSH0 DUP2 ISZERO ISZERO SWAP1 POP SWAP2 SWAP1 POP JUMP JUMPDEST PUSH2 0x4BE DUP2 PUSH2 0x4AA JUMP JUMPDEST DUP3 MSTORE POP POP JUMP JUMPDEST PUSH0 PUSH1 0xC0 DUP3 ADD SWAP1 POP PUSH2 0x4D7 PUSH0 DUP4 ADD DUP10 PUSH2 0x3E9 JUMP JUMPDEST PUSH2 0x4E4 PUSH1 0x20 DUP4 ADD DUP9 PUSH2 0x428 JUMP JUMPDEST PUSH2 0x4F1 PUSH1 0x40 DUP4 ADD DUP8 PUSH2 0x428 JUMP JUMPDEST PUSH2 0x4FE PUSH1 0x60 DUP4 ADD DUP7 PUSH2 0x3E9 JUMP JUMPDEST PUSH2 0x50B PUSH1 0x80 DUP4 ADD DUP6 PUSH2 0x49B JUMP JUMPDEST PUSH2 0x518 PUSH1 0xA0 DUP4 ADD DUP5 PUSH2 0x4B5 JUMP JUMPDEST SWAP8 SWAP7 POP POP POP POP POP POP POP JUMP JUMPDEST PUSH0 PUSH1 0x20 DUP3 ADD SWAP1 POP PUSH2 0x536 PUSH0 DUP4 ADD DUP5 PUSH2 0x3E9 JUMP JUMPDEST SWAP3 SWAP2 POP POP JUMP JUMPDEST PUSH2 0x545 DUP2 PUSH2 0x417 JUMP JUMPDEST DUP2 EQ PUSH2 0x54F JUMPI PUSH0 PUSH0 REVERT JUMPDEST POP JUMP JUMPDEST PUSH0 DUP2 CALLDATALOAD SWAP1 POP PUSH2 0x560 DUP2 PUSH2 0x53C JUMP JUMPDEST SWAP3 SWAP2 POP POP JUMP JUMPDEST PUSH0 PUSH1 0x20 DUP3 DUP5 SUB SLT ISZERO PUSH2 0x57B JUMPI PUSH2 0x57A PUSH2 0x387 JUMP JUMPDEST JUMPDEST PUSH0 PUSH2 0x588 DUP5 DUP3 DUP6 ADD PUSH2 0x552 JUMP JUMPDEST SWAP2 POP POP SWAP3 SWAP2 POP POP JUMP JUMPDEST PUSH0 DUP3 DUP3 MSTORE PUSH1 0x20 DUP3 ADD SWAP1 POP SWAP3 SWAP2 POP POP JUMP JUMPDEST PUSH32 0x46617265206D757374206265203E203000000000000000000000000000000000 PUSH0 DUP3 ADD MSTORE POP JUMP JUMPDEST PUSH0 PUSH2 0x5D5 PUSH1 0x10 DUP4 PUSH2 0x591 JUMP JUMPDEST SWAP2 POP PUSH2 0x5E0 DUP3 PUSH2 0x5A1 JUMP JUMPDEST PUSH1 0x20 DUP3 ADD SWAP1 POP SWAP2 SWAP1 POP JUMP JUMPDEST PUSH0 PUSH1 0x20 DUP3 ADD SWAP1 POP DUP2 DUP2 SUB PUSH0 DUP4 ADD MSTORE PUSH2 0x602 DUP2 PUSH2 0x5C9 JUMP JUMPDEST SWAP1 POP SWAP2 SWAP1 POP JUMP JUMPDEST PUSH32 0x4E487B7100000000000000000000000000000000000000000000000000000000 PUSH0 MSTORE PUSH1 0x11 PUSH1 0x4 MSTORE PUSH1 0x24 PUSH0 REVERT JUMPDEST PUSH0 PUSH2 0x640 DUP3 PUSH2 0x38B JUMP JUMPDEST SWAP2 POP PUSH32 0xFFFFFFFFFFFFFFFFFFFFFFFFFFFFFFFFFFFFFFFFFFFFFFFFFFFFFFFFFFFFFFFF DUP3 SUB PUSH2 0x672 JUMPI PUSH2 0x671 PUSH2 0x609 JUMP JUMPDEST JUMPDEST PUSH1 0x1 DUP3 ADD SWAP1 POP SWAP2 SWAP1 POP JUMP INVALID LOG2 PUSH5 0x6970667358 0x22 SLT KECCAK256 MUL 0xB7 PUSH16 0x2874F3B04A8729BA423809DDA0B802B6 0xAC STATICCALL EXTSTATICCALL DUP15 0xD5 0xD5 BLOBBASEFEE EXP TLOAD 0x2C 0xCD 0xAD 0xB5 PUSH5 0x736F6C6343 STOP ADDMOD 0x1E STOP CALLER "
				},
				"gasEstimates": {
					"creation": {
						"codeDepositCost": "343000",
						"executionCost": "378",
						"totalCost": "343378"
					},
					"external": {
						"nextRideId()": "2424",
						"requestRide(address)": "infinite",
						"rides(uint256)": "infinite"
					}
				},
				"methodIdentifiers": {
					"nextRideId()": "754ed83a",
					"requestRide(address)": "c467b287",
					"rides(uint256)": "5205f112"
				}
			},
			"storageLayout": {
				"storage": [
					{
						"astId": 23,
						"contract": "RideShare.sol:RideShare",
						"label": "nextRideId",
						"offset": 0,
						"slot": "0",
						"type": "t_uint256"
					},
					{
						"astId": 28,
						"contract": "RideShare.sol:RideShare",
						"label": "rides",
						"offset": 0,
						"slot": "1",
						"type": "t_mapping(t_uint256,t_struct(Ride)21_storage)"
					}
				],
				"types": {
					"t_address_payable": {
						"encoding": "inplace",
						"label": "address payable",
						"numberOfBytes": "20"
					},
					"t_bool": {
						"encoding": "inplace",
						"label": "bool",
						"numberOfBytes": "1"
					},
					"t_enum(Status)7": {
						"encoding": "inplace",
						"label": "enum RideShare.Status",
						"numberOfBytes": "1"
					},
					"t_mapping(t_uint256,t_struct(Ride)21_storage)": {
						"encoding": "mapping",
						"key": "t_uint256",
						"label": "mapping(uint256 => struct RideShare.Ride)",
						"numberOfBytes": "32",
						"value": "t_struct(Ride)21_storage"
					},
					"t_struct(Ride)21_storage": {
						"encoding": "inplace",
						"label": "struct RideShare.Ride",
						"members": [
							{
								"astId": 9,
								"contract": "RideShare.sol:RideShare",
								"label": "id",
								"offset": 0,
								"slot": "0",
								"type": "t_uint256"
							},
							{
								"astId": 11,
								"contract": "RideShare.sol:RideShare",
								"label": "passenger",
								"offset": 0,
								"slot": "1",
								"type": "t_address_payable"
							},
							{
								"astId": 13,
								"contract": "RideShare.sol:RideShare",
								"label": "operator",
								"offset": 0,
								"slot": "2",
								"type": "t_address_payable"
							},
							{
								"astId": 15,
								"contract": "RideShare.sol:RideShare",
								"label": "fareWei",
								"offset": 0,
								"slot": "3",
								"type": "t_uint256"
							},
							{
								"astId": 18,
								"contract": "RideShare.sol:RideShare",
								"label": "status",
								"offset": 0,
								"slot": "4",
								"type": "t_enum(Status)7"
							},
							{
								"astId": 20,
								"contract": "RideShare.sol:RideShare",
								"label": "operatorWithdrawn",
								"offset": 1,
								"slot": "4",
								"type": "t_bool"
							}
						],
						"numberOfBytes": "160"
					},
					"t_uint256": {
						"encoding": "inplace",
						"label": "uint256",
						"numberOfBytes": "32"
					}
				}
			},
			"userdoc": {
				"kind": "user",
				"methods": {
					"requestRide(address)": {
						"notice": "Passenger requests a ride and deposits fare"
					}
				},
				"notice": "Demonstrates sender (passenger), receiver (operator) and blockchain as middle layer",
				"version": 1
			}
		}
	}
}